{
  "contractName": "Auth",
  "abi": [
    {
      "inputs": [],
      "stateMutability": "nonpayable",
      "type": "constructor"
    },
    {
      "inputs": [],
      "name": "nbOfUsers",
      "outputs": [
        {
          "internalType": "uint256",
          "name": "",
          "type": "uint256"
        }
      ],
      "stateMutability": "view",
      "type": "function",
      "constant": true
    },
    {
      "inputs": [],
      "name": "userIdCounter",
      "outputs": [
        {
          "internalType": "uint256",
          "name": "",
          "type": "uint256"
        }
      ],
      "stateMutability": "view",
      "type": "function",
      "constant": true
    },
    {
      "inputs": [
        {
          "internalType": "string",
          "name": "_signature",
          "type": "string"
        },
        {
          "internalType": "bytes32",
          "name": "_usernameHash",
          "type": "bytes32"
        },
        {
          "internalType": "bytes32",
          "name": "_emailHash",
          "type": "bytes32"
        },
        {
          "internalType": "bytes32",
          "name": "_passwordHash",
          "type": "bytes32"
        }
      ],
      "name": "register",
      "outputs": [],
      "stateMutability": "nonpayable",
      "type": "function"
    },
    {
      "inputs": [
        {
          "internalType": "uint256",
          "name": "userId",
          "type": "uint256"
        }
      ],
      "name": "getSignatureHash",
      "outputs": [
        {
          "internalType": "string",
          "name": "",
          "type": "string"
        }
      ],
      "stateMutability": "view",
      "type": "function",
      "constant": true
    },
    {
      "inputs": [
        {
          "internalType": "address",
          "name": "userAddress",
          "type": "address"
        }
      ],
      "name": "getUserIdsByAddress",
      "outputs": [
        {
          "internalType": "uint256[]",
          "name": "",
          "type": "uint256[]"
        }
      ],
      "stateMutability": "view",
      "type": "function",
      "constant": true
    },
    {
      "inputs": [],
      "name": "getAllUserIds",
      "outputs": [
        {
          "internalType": "uint256[]",
          "name": "",
          "type": "uint256[]"
        }
      ],
      "stateMutability": "view",
      "type": "function",
      "constant": true
    },
    {
      "inputs": [
        {
          "internalType": "string",
          "name": "_signature",
          "type": "string"
        }
      ],
      "name": "getUserIdByHash",
      "outputs": [
        {
          "internalType": "uint256",
          "name": "",
          "type": "uint256"
        }
      ],
      "stateMutability": "view",
      "type": "function",
      "constant": true
    },
    {
      "inputs": [
        {
          "internalType": "bytes32",
          "name": "_usernameHash",
          "type": "bytes32"
        }
      ],
      "name": "usernameExists",
      "outputs": [
        {
          "internalType": "bool",
          "name": "",
          "type": "bool"
        }
      ],
      "stateMutability": "view",
      "type": "function",
      "constant": true
    },
    {
      "inputs": [
        {
          "internalType": "bytes32",
          "name": "_emailHash",
          "type": "bytes32"
        }
      ],
      "name": "emailExists",
      "outputs": [
        {
          "internalType": "bool",
          "name": "",
          "type": "bool"
        }
      ],
      "stateMutability": "view",
      "type": "function",
      "constant": true
    },
    {
      "inputs": [
        {
          "internalType": "uint256",
          "name": "userId",
          "type": "uint256"
        }
      ],
      "name": "getPasswordHash",
      "outputs": [
        {
          "internalType": "bytes32",
          "name": "",
          "type": "bytes32"
        }
      ],
      "stateMutability": "view",
      "type": "function",
      "constant": true
    },
    {
      "inputs": [
        {
          "internalType": "bytes32",
          "name": "_emailHash",
          "type": "bytes32"
        },
        {
          "internalType": "bytes32",
          "name": "_passwordHash",
          "type": "bytes32"
        },
        {
          "internalType": "address",
          "name": "_userAddress",
          "type": "address"
        }
      ],
      "name": "login",
      "outputs": [
        {
          "internalType": "bool",
          "name": "",
          "type": "bool"
        }
      ],
      "stateMutability": "view",
      "type": "function",
      "constant": true
    }
  ],
  "bytecode": "0x608060405234801561001057600080fd5b5060008081905550600180819055506112da8061002e6000396000f3fe608060405234801561001057600080fd5b50600436106100a95760003560e01c80632faba6ae116100715780632faba6ae1461018c578063348360fd146101aa5780636530c430146101da5780636f841e2e146101f6578063be4906c914610226578063cc0ed1e314610244576100a9565b806312679323146100ae578063158a5718146100cc5780631e04c985146100fc578063259018d11461012c578063273b65511461015c575b600080fd5b6100b6610274565b6040516100c39190610ed2565b60405180910390f35b6100e660048036038101906100e19190610a90565b61027a565b6040516100f39190610e3a565b60405180910390f35b61011660048036038101906101119190610bdc565b6102a4565b6040516101239190610e70565b60405180910390f35b61014660048036038101906101419190610b10565b61034c565b6040516101539190610ed2565b60405180910390f35b61017660048036038101906101719190610a63565b6103ee565b6040516101839190610e18565b60405180910390f35b610194610485565b6040516101a19190610ed2565b60405180910390f35b6101c460048036038101906101bf9190610a90565b61048b565b6040516101d19190610e3a565b60405180910390f35b6101f460048036038101906101ef9190610b59565b6104b5565b005b610210600480360381019061020b9190610abd565b610755565b60405161021d9190610e3a565b60405180910390f35b61022e61083d565b60405161023b9190610e18565b60405180910390f35b61025e60048036038101906102599190610bdc565b6108f1565b60405161026b9190610e55565b60405180910390f35b60005481565b60006004600083815260200190815260200160002060009054906101000a900460ff169050919050565b60606002600083815260200190815260200160002060010180546102c790611080565b80601f01602080910402602001604051908101604052809291908181526020018280546102f390611080565b80156103405780601f1061031557610100808354040283529160200191610340565b820191906000526020600020905b81548152906001019060200180831161032357829003601f168201915b50505050509050919050565b600080600190505b6001548110156103e3578260405160200161036f9190610dea565b60405160208183030381529060405280519060200120600260008381526020019081526020016000206001016040516020016103ab9190610e01565b6040516020818303038152906040528051906020012014156103d057809150506103e9565b80806103db906110e3565b915050610354565b50600090505b919050565b6060600360008373ffffffffffffffffffffffffffffffffffffffff1673ffffffffffffffffffffffffffffffffffffffff16815260200190815260200160002080548060200260200160405190810160405280929190818152602001828054801561047957602002820191906000526020600020905b815481526020019060010190808311610465575b50505050509050919050565b60015481565b60006005600083815260200190815260200160002060009054906101000a900460ff169050919050565b6004600084815260200190815260200160002060009054906101000a900460ff1615610516576040517f08c379a000000000000000000000000000000000000000000000000000000000815260040161050d90610eb2565b60405180910390fd5b6005600083815260200190815260200160002060009054906101000a900460ff1615610577576040517f08c379a000000000000000000000000000000000000000000000000000000000815260040161056e90610e92565b60405180910390fd5b6040518060c0016040528060015481526020018581526020013373ffffffffffffffffffffffffffffffffffffffff168152602001848152602001838152602001828152506002600060015481526020019081526020016000206000820151816000015560208201518160010190805190602001906105f7929190610911565b5060408201518160020160006101000a81548173ffffffffffffffffffffffffffffffffffffffff021916908373ffffffffffffffffffffffffffffffffffffffff160217905550606082015181600301556080820151816004015560a08201518160050155905050600360003373ffffffffffffffffffffffffffffffffffffffff1673ffffffffffffffffffffffffffffffffffffffff168152602001908152602001600020600154908060018154018082558091505060019003906000526020600020016000909190919091505560016004600085815260200190815260200160002060006101000a81548160ff02191690831515021790555060016005600084815260200190815260200160002060006101000a81548160ff02191690831515021790555060016000815480929190610733906110e3565b919050555060008081548092919061074a906110e3565b919050555050505050565b600080600190505b600154811015610830578460026000838152602001908152602001600020600401541480156107a15750836002600083815260200190815260200160002060050154145b801561080e57508273ffffffffffffffffffffffffffffffffffffffff166002600083815260200190815260200160002060020160009054906101000a900473ffffffffffffffffffffffffffffffffffffffff1673ffffffffffffffffffffffffffffffffffffffff16145b1561081d576001915050610836565b8080610828906110e3565b91505061075d565b50600090505b9392505050565b606060006001805461084f9190610fb8565b67ffffffffffffffff811115610868576108676111b9565b5b6040519080825280602002602001820160405280156108965781602001602082028036833780820191505090505b5090506000600190505b6001548110156108e95780826001836108b99190610fb8565b815181106108ca576108c961118a565b5b60200260200101818152505080806108e1906110e3565b9150506108a0565b508091505090565b600060026000838152602001908152602001600020600501549050919050565b82805461091d90611080565b90600052602060002090601f01602090048101928261093f5760008555610986565b82601f1061095857805160ff1916838001178555610986565b82800160010185558215610986579182015b8281111561098557825182559160200191906001019061096a565b5b5090506109939190610997565b5090565b5b808211156109b0576000816000905550600101610998565b5090565b60006109c76109c284610f12565b610eed565b9050828152602081018484840111156109e3576109e26111ed565b5b6109ee84828561103e565b509392505050565b600081359050610a058161125f565b92915050565b600081359050610a1a81611276565b92915050565b600082601f830112610a3557610a346111e8565b5b8135610a458482602086016109b4565b91505092915050565b600081359050610a5d8161128d565b92915050565b600060208284031215610a7957610a786111f7565b5b6000610a87848285016109f6565b91505092915050565b600060208284031215610aa657610aa56111f7565b5b6000610ab484828501610a0b565b91505092915050565b600080600060608486031215610ad657610ad56111f7565b5b6000610ae486828701610a0b565b9350506020610af586828701610a0b565b9250506040610b06868287016109f6565b9150509250925092565b600060208284031215610b2657610b256111f7565b5b600082013567ffffffffffffffff811115610b4457610b436111f2565b5b610b5084828501610a20565b91505092915050565b60008060008060808587031215610b7357610b726111f7565b5b600085013567ffffffffffffffff811115610b9157610b906111f2565b5b610b9d87828801610a20565b9450506020610bae87828801610a0b565b9350506040610bbf87828801610a0b565b9250506060610bd087828801610a0b565b91505092959194509250565b600060208284031215610bf257610bf16111f7565b5b6000610c0084828501610a4e565b91505092915050565b6000610c158383610dcc565b60208301905092915050565b6000610c2c82610f68565b610c368185610f8b565b9350610c4183610f43565b8060005b83811015610c72578151610c598882610c09565b9750610c6483610f7e565b925050600181019050610c45565b5085935050505092915050565b610c8881610ffe565b82525050565b610c978161100a565b82525050565b6000610ca882610f73565b610cb28185610f9c565b9350610cc281856020860161104d565b610ccb816111fc565b840191505092915050565b6000610ce182610f73565b610ceb8185610fad565b9350610cfb81856020860161104d565b80840191505092915050565b60008154610d1481611080565b610d1e8186610fad565b94506001821660008114610d395760018114610d4a57610d7d565b60ff19831686528186019350610d7d565b610d5385610f53565b60005b83811015610d7557815481890152600182019150602081019050610d56565b838801955050505b50505092915050565b6000610d93601483610f9c565b9150610d9e8261120d565b602082019050919050565b6000610db6601783610f9c565b9150610dc182611236565b602082019050919050565b610dd581611034565b82525050565b610de481611034565b82525050565b6000610df68284610cd6565b915081905092915050565b6000610e0d8284610d07565b915081905092915050565b60006020820190508181036000830152610e328184610c21565b905092915050565b6000602082019050610e4f6000830184610c7f565b92915050565b6000602082019050610e6a6000830184610c8e565b92915050565b60006020820190508181036000830152610e8a8184610c9d565b905092915050565b60006020820190508181036000830152610eab81610d86565b9050919050565b60006020820190508181036000830152610ecb81610da9565b9050919050565b6000602082019050610ee76000830184610ddb565b92915050565b6000610ef7610f08565b9050610f0382826110b2565b919050565b6000604051905090565b600067ffffffffffffffff821115610f2d57610f2c6111b9565b5b610f36826111fc565b9050602081019050919050565b6000819050602082019050919050565b60008190508160005260206000209050919050565b600081519050919050565b600081519050919050565b6000602082019050919050565b600082825260208201905092915050565b600082825260208201905092915050565b600081905092915050565b6000610fc382611034565b9150610fce83611034565b925082821015610fe157610fe061112c565b5b828203905092915050565b6000610ff782611014565b9050919050565b60008115159050919050565b6000819050919050565b600073ffffffffffffffffffffffffffffffffffffffff82169050919050565b6000819050919050565b82818337600083830152505050565b60005b8381101561106b578082015181840152602081019050611050565b8381111561107a576000848401525b50505050565b6000600282049050600182168061109857607f821691505b602082108114156110ac576110ab61115b565b5b50919050565b6110bb826111fc565b810181811067ffffffffffffffff821117156110da576110d96111b9565b5b80604052505050565b60006110ee82611034565b91507fffffffffffffffffffffffffffffffffffffffffffffffffffffffffffffffff8214156111215761112061112c565b5b600182019050919050565b7f4e487b7100000000000000000000000000000000000000000000000000000000600052601160045260246000fd5b7f4e487b7100000000000000000000000000000000000000000000000000000000600052602260045260246000fd5b7f4e487b7100000000000000000000000000000000000000000000000000000000600052603260045260246000fd5b7f4e487b7100000000000000000000000000000000000000000000000000000000600052604160045260246000fd5b600080fd5b600080fd5b600080fd5b600080fd5b6000601f19601f8301169050919050565b7f456d61696c20616c726561647920657869737473000000000000000000000000600082015250565b7f557365726e616d6520616c726561647920657869737473000000000000000000600082015250565b61126881610fec565b811461127357600080fd5b50565b61127f8161100a565b811461128a57600080fd5b50565b61129681611034565b81146112a157600080fd5b5056fea2646970667358221220344cd7eb708df3d70c74a972881eb2ef50510ebbf008817313abb07a840489f864736f6c63430008060033",
  "immutableReferences": {},
  "source": "// SPDX-License-Identifier: MIT\npragma solidity 0.8.6;\n\ncontract Auth {\n    uint256 public nbOfUsers;\n    uint256 public userIdCounter;\n\n    struct User {\n        uint256 userId;\n        string signatureHash;\n        address userAddress;\n        bytes32 usernameHash;\n        bytes32 emailHash;\n        bytes32 passwordHash;\n    }\n\n    mapping(uint256 => User) private users;\n    mapping(address => uint256[]) private userIdsByAddress;\n    mapping(bytes32 => bool) private usernameExistsMapping;\n    mapping(bytes32 => bool) private emailExistsMapping;\n\n    constructor() {\n        nbOfUsers = 0;\n        userIdCounter = 1;\n    }\n\n    function register(string memory _signature, bytes32 _usernameHash, bytes32 _emailHash, bytes32 _passwordHash) public {\n        require(!usernameExistsMapping[_usernameHash], \"Username already exists\");\n        require(!emailExistsMapping[_emailHash], \"Email already exists\");\n\n        users[userIdCounter] = User({\n            userId: userIdCounter,\n            signatureHash: _signature,\n            userAddress: msg.sender,\n            usernameHash: _usernameHash,\n            emailHash: _emailHash,\n            passwordHash: _passwordHash\n        });\n        userIdsByAddress[msg.sender].push(userIdCounter);\n        usernameExistsMapping[_usernameHash] = true;\n        emailExistsMapping[_emailHash] = true;\n        userIdCounter++;\n        nbOfUsers++;\n    }\n\n    function getSignatureHash(uint256 userId) public view returns (string memory) {\n        return users[userId].signatureHash;\n    }\n\n    function getUserIdsByAddress(address userAddress) public view returns (uint256[] memory) {\n        return userIdsByAddress[userAddress];\n    }\n\n    function getAllUserIds() public view returns (uint256[] memory) {\n        uint256[] memory ids = new uint256[](userIdCounter - 1);\n        for (uint256 i = 1; i < userIdCounter; i++) {\n            ids[i - 1] = i;\n        }\n        return ids;\n    }\n\n    function getUserIdByHash(string memory _signature) public view returns (uint256) {\n        for (uint256 i = 1; i < userIdCounter; i++) {\n            if (keccak256(abi.encodePacked(users[i].signatureHash)) == keccak256(abi.encodePacked(_signature))) {\n                return i;\n            }\n        }\n        return 0; // return 0 if no matching user is found\n    }\n\n    function usernameExists(bytes32 _usernameHash) public view returns (bool) {\n        return usernameExistsMapping[_usernameHash];\n    }\n\n    function emailExists(bytes32 _emailHash) public view returns (bool) {\n        return emailExistsMapping[_emailHash];\n    }\n\n    function getPasswordHash(uint256 userId) public view returns (bytes32) {\n        return users[userId].passwordHash;\n    }\n\n    function login(bytes32 _emailHash, bytes32 _passwordHash, address _userAddress) public view returns (bool) {\n        for (uint256 i = 1; i < userIdCounter; i++) {\n            if (users[i].emailHash == _emailHash && users[i].passwordHash == _passwordHash && users[i].userAddress == _userAddress) {\n                return true;\n            }\n        }\n        return false;\n    }\n}\n",
  "sourcePath": "C:\\Users\\Ricardo\\Desktop\\Blockchain\\contracts\\Auth.sol",
  "compiler": {
    "name": "solc",
    "version": "0.8.6+commit.11564f7e.Emscripten.clang"
  },
  "schemaVersion": "3.4.16",
  "updatedAt": "2024-06-30T04:57:59.109Z",
  "networkType": "ethereum",
  "devdoc": {
    "kind": "dev",
    "methods": {},
    "version": 1
  },
  "userdoc": {
    "kind": "user",
    "methods": {},
    "version": 1
  }
}